:020000040800F2
:10000000F81000209D01000875260008B72300089D
:100010005926000885030008C12B000800000000D5
:10002000000000000000000000000000552800084B
:100030003906000800000000972600087128000813
:10004000B7010008B7010008B7010008B7010008B0
:10005000B7010008B70100083B060008B701000817
:10006000B7010008B7010008B7010008B701000890
:10007000B7010008B7010008B7010008B701000880
:10008000B7010008B7010008B70100089503000890
:1000900089030008B7010008B7010008B70100088C
:1000A000B7010008B7010008B7010008B701000850
:1000B000B7010008B7010008B7010008B701000840
:1000C000B7010008B7010008B7010008B701000830
:1000D000B7010008B7010008B7010008B701000820
:1000E000B7010008B7010008B7010008B701000810
:1000F000B7010008B7010008B7010008B701000800
:10010000B7010008B7010008B7010008B7010008EF
:10011000B7010008B7010008B7010008B7010008DF
:10012000B7010008B7010008B7010008B7010008CF
:10013000B70100080000000000000000A103000853
:10014000B7010008B7010008B7010008B7010008AF
:10015000B7010008B7010008B7010008B70100089F
:10016000B7010008B7010008B7010008B70100088F
:10017000B7010008B70100080000000000000000FF
:10018000B7010008B7010008DFF80CD000F0E8F86C
:1001900000480047C52E0008F81000200648804798
:1001A00006480047FEE7FEE7FEE7FEE7FEE7FEE75C
:1001B000FEE7FEE7FEE7FEE7B9290008890100082F
:1001C0002DE9F05F0546002092469B46884606468C
:1001D000814640241BE0284641464746224600F01F
:1001E00077F853465A46C01A914110D31146184623
:1001F000224600F05EF82D1A67EB01084F462246B2
:100200000120002100F055F817EB00094E41201E97
:10021000A4F10104DFDC484631462A464346BDE8E6
:10022000F09F40EA01039B0703D009E008C9121FB1
:1002300008C0042AFAD203E011F8013B00F8013BA0
:10024000521EF9D27047D2B201E000F8012B491ECC
:10025000FBD270470022F6E710B513460A46044663
:100260001946FFF7F0FF204610BD30B40446962330
:100270000800214604D0B62330BC002200F041B86B
:1002800020460021F8E730B50B4601460020202229
:10029000012409E021FA02F59D4205D303FA02F593
:1002A000491B04FA02F52844151EA2F10102F1DCF3
:1002B00030BD202A04DB203A00FA02F1002070470A
:1002C0009140C2F1200320FA03F319439040704794
:1002D000202A04DB203A21FA02F00021704721FA9B
:1002E00002F3D040C2F12002914008431946704702
:1002F0000029A8BF7047401C490008BF20F001003A
:10030000704710B4B0FA80FC00FA0CF050EA010417
:1003100004BF10BC704749B1CCF1200421FA04F4A9
:1003200011FA0CF118BF012121430843A3EB0C0182
:10033000CB1D4FEA00614FEA102042BF002010BCE5
:10034000704700EBC35010440029A4BF10BC704795
:10035000401C490008BF20F0010010BC704700009D
:10036000064C074D06E0E06840F0010394E8070002
:1003700098471034AC42F6D3FFF70AFF203E00083E
:10038000403E0008FEE70000014800F0F4BB00001A
:100390002C010020014800F0EEBB00002C010020E1
:1003A000014800F0E8BB00002C01002010B51C49FA
:1003B00004468AB000208860C8600121194ACDE94E
:1003C0000501079012685201009244F24012019216
:1003D00046F24012029248F24012CDE903200E206C
:1003E000CDE908106946204600F0B4FA204600F036
:1003F000BBFD10B10CA002F0F9FB0221204600F079
:1004000033FA10B10DA002F0F1FB1021204600F0EC
:100410002BFA002802D009A002F0E8FB0AB010BDB8
:10042000F8000020180000205374617274204341CA
:100430004E206572726F7220210D0A00416374694B
:10044000766174654E6F74696669636174696F6E15
:100450002043414E206572726F720D0A0000000049
:100460002DE9F84FDFF87C801D4691460026C8F83C
:100470000010A0B1B9F1000F11D085B1680700D00C
:10048000012000EBD5041748343000F05EFB082152
:10049000C246C8F81010C7B205F007081CE00120DA
:1004A000BDE8F88F4CB9680707D0CAF8108004E09F
:1004B0000C48343000F049FBC7B2002FF8D009498E
:1004C00009EB06026B4601F1340000F0DFF908B1D8
:1004D0000220E5E70836B6B22046641EA4B2E1D297
:1004E000DEE70000F800002010B502F03BF8BDE8A0
:1004F00010400148FFF75ABF2C0100200888CB7834
:100500000A1D01460148FFF7ABBF00002C01002087
:100510001FB50A486946B0F8BC42204600F040F9D1
:1005200001280AD13220641CB4FBF0F100FB114019
:1005300002F092F9684602F091F81FBDF801002020
:1005400010B500F005F8BDE8104000F017B8000045
:1005500070B5094D002400BFC4EBC40005EB40009A
:100560000E21FFF777FE641C322CF5DB0020A5F886
:10057000BC02A5F8BE0270BDF801002070B5094D9F
:10058000002400BFC4EBC40005EB40000E21FFF7C0
:1005900061FE641C322CF5DB0020A5F8BC02A5F836
:1005A000BE0270BDB804002010B5104C0E480C21DE
:1005B00020604FF4E13060600020A060E0602061C6
:1005C000C4E90510E061204601F01BFE28B108A136
:1005D0002A220FA002F00AFBFEE72068C16841F062
:1005E0002001C16010BD000000440040B8000020A0
:1005F0002E2E5C557365725C75736172745C6273E8
:10060000705F64656275675F75736172742E6300F5
:1006100025732C2025640A0010B5182204490020F7
:1006200003F0DEF8024803494068086010BD00008E
:10063000E0010020380000207047704710B500F03E
:10064000DFFC0249F320086010BD00000C3C0240B2
:100650002DE9F04716468A46054600244CF25039EB
:10066000DFF85480154F1FE01AF80410286800F0D6
:100670002BF8484600F06CF810B10120BDE8F08777
:10068000D8F8001021F00101C8F80010286801789E
:100690001AF80400814203D009A002F0A7FAECE79F
:1006A0002868401C2860641CB44202D22868B84202
:1006B000DAD90020E2E70000103C0240FFFF050805
:1006C0003232323232000000064A136823F440739B
:1006D000136013681360136843F001031360017023
:1006E00070470000103C024017490868C2061748CE
:1006F00005D5C26942F01002C26110220A600A6880
:10070000920605D5C26942F00802C26120220A6041
:100710000A68520605D5C26942F00402C26140224D
:100720000A600A68120605D5C26942F00202C26177
:1007300080220A600A68920705D5C26942F0200249
:10074000C2610220086070470C3C02409800002003
:1007500070B5114904460020C86100F003FE06464A
:100760000E4D09E0601C07D024B100F0FBFD801B9A
:10077000A04201D9032070BD2868C003F2D42868C4
:10078000C00701D001202860286810F0F200F2D0E4
:10079000FFF7AAFF012070BD980000200C3C02402A
:1007A0000B46094910B5B1F8BE22824209D0C0EB10
:1007B000C00001EB40010E221846FFF732FD012078
:1007C00010BD002010BD0000F80100202DE9FF47FA
:1007D00000258146009508208DF803001B480195EF
:1007E000029503958DF802500088ADF80000602056
:1007F0008DF804000F208DF8050012208DF80600FA
:1008000003208DF80700124EDFF84880124F134C7A
:10081000FFF77EFE3068FF2814D039684145F7D3D2
:100820003D602068029069460020FFF767FE21685E
:100830000BA0491E216002F0D9F920680028E7D1F9
:10084000BDE8FF870121C9F80010F9E71C0000206E
:1008500088000020A08601002C0000208C000020D1
:10086000256420730A00000090F82020012A07D098
:10087000022A05D0416A41F480214162012070477B
:10088000006842690A43426100207047F0B590F861
:1008900020500468A468012D05D0022D03D0416AC0
:1008A00041F4802153E014F0406F01D1E5004BD5B5
:1008B000C4F30164022C03D9416A41F4000146E00B
:1008C0000125A5401D608D684FF4C0739DB1CE68B1
:1008D00035434E6845EAC605066803EB0417F55133
:1008E0004FF4C275076805EB04150E697E51097D4A
:1008F000012905D009E00E88CD6845EA4655EBE7A9
:1009000001684E5946F480764E511179D2F805505F
:100910004FF4C67641EA0525016806EB04168D51B1
:100920001178D2F801204FF4C47541EA022102681F
:1009300005EB04155151006803EB0411425842F0D5
:10094000010242500020F0BD416A41F400114162B1
:100950000120F0BD10B590F82020012A07D0022A0E
:1009600005D0416A41F480214162012010BD3B481D
:10097000D0F8002242F00102C0F80022D0F8002294
:1009800022F47C52C0F80022D0F800224B6A42EADE
:100990000322C0F800220A7D02F01F0301229A40C0
:1009A000D0F81C329343C0F81C32CB69B3B9D0F8ED
:1009B0000C329343C0F80C328C894B6864F31F43AC
:1009C0004C6900EBC404C4F840320C890B6864F332
:1009D0001F434C6900EBC404C4F84432CB69012BBB
:1009E00016D1D0F80C321343C0F80C320C884B6887
:1009F00064F31F434C6900EBC404C4F840320C8913
:100A0000CB6864F31F434C6900EBC404C4F8443260
:100A10008B69002BD0F804320ED01343C0F8043297
:100A20000B69002BD0F8143208D01343C0F81432ED
:100A3000096A012904D008E09343EFE79343F5E7FF
:100A4000D0F81C121143C0F81C12D0F8001221F08B
:100A50000101C0F80012002010BD00000064004039
:100A6000704730B590F82040012C05D0022C03D0FF
:100A7000416A41F480215DE00468002955D0246971
:100A8000A40754D04FF4D874056804EB01142D5911
:100A900015F00405956005682D594ED0ED08556098
:100AA00005682C5904F00204D4604FF4DA74056828
:100AB00004EB01142D5905F00F05156105682D593A
:100AC000C5F30725956105682C59240C54614FF432
:100AD000DC72046802EB0112A4581C700468A4586C
:100AE000240A5C700468A458240C9C700468A25802
:100AF000120EDA704FF4DE72046802EB0112A45891
:100B00001C710468A458240A5C710468A458240C5D
:100B10009C710468A258120EDA71006881B10169F3
:100B200041F020010161002030BDE468A8E7416A7E
:100B300041F400114162012030BD6D0D1560AFE739
:100B4000C16841F02001C160EDE70246002092F843
:100B50002010012901D002290CD111688A685201A4
:100B600000D501208A68120100D5401C8968C9009F
:100B700000D5401C70472DE9F05F05460068002451
:100B80004669D0F804908768D0F80CB0D0F810A06F
:100B9000D0F81880F10748D0F90714D001218160FE
:100BA000B80703D5284600F00DFA0CE0780702D507
:100BB0004FF4006407E0380702D54FF4805402E098
:100BC000284600F0FDF9F80516D529684FF4807025
:100BD0008860B80503D5284600F0FEF90CE07805DA
:100BE00002D544F4005407E0380502D544F48044AB
:100BF00002E0284600F0EEF9F80316D529684FF414
:100C000080308860B80303D5284600F0EFF90CE087
:100C1000780302D544F4004407E0380302D544F4D5
:100C2000803402E0284600F0DFF9300707D55FEA9C
:100C3000CB6004D52968102044F40074C8607007A4
:100C40004FF0080707D55FEA0B7004D52868C76026
:100C5000284600F07FF9B00706D52868C0688007ED
:100C600002D0284600F077F9700607D55FEACA601F
:100C700004D52968102044F480640861B00607D5C3
:100C80005FEA0A7004D528680761284600F066F913
:100C9000F00606D528680069800702D0284600F0D3
:100CA0005EF9B00308D55FEAC96005D52968102050
:100CB0004860284600F056F9F00307D55FEA09704E
:100CC00004D528684760284600F098F9300446D5D6
:100CD0005FEA497040D5F00504D55FEAC87001D0DD
:100CE00044F00104B00504D55FEA887001D544F0F2
:100CF0000204700504D55FEA487001D544F004048D
:100D0000300529D518F0700F26D008F07000402863
:100D100015D006DC102809D020280AD0302816D19A
:100D20000AE050280ED0602811D10EE044F00804EB
:100D30000DE044F010040AE044F0200407E044F021
:100D4000400404E044F0800401E044F48074286826
:100D5000816921F070018161296804204860002CBC
:100D600005D0686A204368622846FFF779FEBDE82F
:100D7000F09F70B5040003D094F8200010B104E097
:100D8000012070BD204600F09FF82068016821F026
:100D90000201016000F0E6FA0546052604E000F0D5
:100DA000E1FA401B0A2811D8206840688007F6D471
:100DB0002068016841F00101016000F0D3FA0546A6
:100DC0000BE000F0CFFA401B0A2806D9606A40F415
:100DD0000030606284F82060D2E720684068C00775
:100DE000EFD0207E0128206801683DD021F08001ED
:100DF0000160607E01282068016838D021F0400140
:100E00000160A07E01282068016833D021F0200114
:100E10000160E07E0128206801682ED041F01001B9
:100E20000160207F01282068016829D021F0080195
:100E30000160607F01282068016824D021F004014E
:100E40000160D4E902010843D4E9041211430843C4
:100E50006168491E08432168C86100206062012062
:100E600084F82000002070BD41F08001C0E741F00F
:100E70004001C5E741F02001CAE721F01001CFE7AA
:100E800041F00801D4E741F00401D9E710B500684A
:100E90000A49884211D10A48016821F000710160B5
:100EA0004FF4C051074800F0C1F8142000F088FA50
:100EB000BDE81040152000F083BA10BD006400406A
:100EC000403802400000024010B586B004461421AC
:100ED0006846FFF7BFF91C492068884231D11B489A
:100EE0000021026842F000720260006800F00070A9
:100EF000059016481038026842F00102026000684E
:100F000000F0010005904FF4C05000900220CDE9A0
:100F10000101032003900920049069460C4800F069
:100F200039F900221146142000F060FA142000F074
:100F300052FA00221146152000F058FA152000F050
:100F40004AFA06B010BD000000640040403802407C
:100F5000000002407047002102F0DEBC7047012112
:100F600002F0DABC7047000070B5044690F820002B
:100F7000012804D0606A40F40020606218E002207A
:100F800084F820002068016821F00101016000F070
:100F9000E9F905460EE000BF00F0E4F9401B0A281D
:100FA00008D9606A40F400306062052084F82000AF
:100FB000012070BD20684068C007EDD1606270BD3F
:100FC0007047000002484168491C416070470000BA
:100FD000380000207047000002484168491C416009
:100FE0007047000038000020704700000248416848
:100FF000491C416070470000380000207047000025
:10100000074900200A68002A09DA054A054B0C3A0C
:101010001360054B13600968002900DA012070474E
:10102000103C024023016745AB89EFCD2DE9F04F1D
:101030000022DFF838B101264FF00F0906FA02F45A
:1010400001EA0403A3427DD122F003075F44D7F8ED
:10105000088895074FEA157C09FA0CFA0AEA080590
:10106000DFF80C81404502D14FF0000832E0DFF894
:101070000481404502D14FF001082BE0DFF8F880F1
:10108000404502D14FF0020824E0DFF8F0804045EF
:1010900002D14FF003081DE0DFF8E480404502D1A3
:1010A0004FF0040816E0DFF8DC80404502D14FF035
:1010B00005080FE0DFF8D080404502D14FF0060868
:1010C00008E0DFF8C880404502D14FF0070801E092
:1010D0004FF0080808FA0CF8A84522D12C4DD5F895
:1010E00000C02CEA030CC5F800C005F1040CDCF8C4
:1010F00000509D43CCF800500CF10405D5F800C019
:101100002CEA030CC5F800C02D1DD5F800C02CEA50
:10111000030CC5F800C0D7F8085825EA0A05C7F837
:101120000858056857000323BB409D430560D50858
:1011300000EB8505D5F820C057074FEAD76809FAB4
:1011400008F700E00CE02CEA070CC5F820C0C568E1
:101150009D43C5604568A543456084689C438460A1
:10116000521C102AFFF46AAFBDE8F08F0030014036
:10117000000002400004024000080240000C02404F
:10118000001002400014024000180240001C0240FF
:10119000003C01402DE9F84F00224FF001080325E3
:1011A0004FF00F0E0B6808FA02F42340A3426ED1F1
:1011B0004E68012E05D0022E03D0112E01D0122E22
:1011C00012D186684FEA420C05FA0CF7BE43CF688D
:1011D00007FA0CF7374387604668A6430C79C4F3D7
:1011E0000014944034434460C668570005FA07FC75
:1011F0008C6826EA0C06BC403443C4604C68022C60
:1012000001D0122C13D1D40800EB8404A346D4F8E7
:10121000209054074FEAD46A0EFA0AF629EA060922
:101220000E6906FA0AF646EA0906CBF82060066857
:101230000C7926EA0C0604F00304BC403443046035
:101240004C68E40065D5364C266846F48046266036
:10125000246822F0030604F480440094314C3444A2
:10126000A446D4F808489607370F0EFA07F6B44399
:101270002D4EB04201D1002624E02C4EB04201D1C7
:1012800001261FE02A4EB04202D102261AE040E0B9
:10129000284EB04201D1032614E0274EB04201D1BE
:1012A00004260FE0254EB04201D105260AE0244E67
:1012B000B04201D1062605E0224EB04201D10726F8
:1012C00000E00826BE402643CCF808681E4E34686D
:1012D0004F689C43FF0300D51C4334601A4C241D07
:1012E00026684F689E43BF0300D51E432660164EF6
:1012F000083634684F689C43FF0200D51C433460B5
:10130000114E0C3634684F689C43BF0200D51C4315
:101310003460521C102AFFF445AFBDE8F88F00007E
:101320004438024000300140000002400004024006
:1013300000080240000C024000100240001402406D
:1013400000180240001C0240003C01400AB18161CB
:1013500070470904FBE7000001480068000C704773
:10136000002004E00148806870470000040000206D
:1013700002488168027811448160704704000020AF
:1013800070B50D4D04464FF47A712878B1FBF0F03A
:101390000A490968B1FBF0F000F01FFF48B9102CB2
:1013A00007D200222146501E00F020F800206C6079
:1013B00070BD012070BD000004000020000000206E
:1013C00000F01F02012191404009800000F1E0205F
:1013D000C0F88011704700F01F02012191404009C0
:1013E000800000F1E020C0F800117047F0B40E4B0F
:1013F0001B680C46C3F30223C3F10705042D00D973
:101400000425191D072901D2002300E0DB1E012657
:1014100006FA05F1491E214099409E40761E16406D
:101420003143F0BC01F027B90CED00E02DE9F047A5
:101430000E46050065D0DFF81481D8F80000F7B239
:1014400000F00F00B04207D288F80070D8F8000012
:1014500000F00F00B04254D128683D4C810712D5EE
:10146000400703D5206840F4E0502060287800074A
:1014700003D5206840F4604020602068A96820F00F
:10148000F000084320602878C0072DD030496868F4
:101490000839012812D0022813D0032811D0096876
:1014A000890700292DDA216821F003010143216019
:1014B000FFF758FF814641F2883A0EE00968890338
:1014C000EFE709688901ECE7FFF74CFFA0EB0901A2
:1014D000514502D90320BDE8F0872068696800F013
:1014E0000C00B0EB810FEFD1D8F80010404601F0AE
:1014F0000F01B14207D90770006800F00F00B04239
:1015000001D00120E7E72878400705D52068E96881
:1015100020F4E050084320602878000706D52068B2
:10152000296920F4604040EAC100206000F0D2F850
:101530002168084AC1F30311515CC840064908609C
:1015400006480068FFF71CFF0020C4E7003C02408B
:1015500008380240D43900080000002008000020AC
:101560002DE9F041FFF7FEFE444C0546206840F0AF
:101570000100206005E000BFFFF7F4FE401B0228D9
:1015800047D820688007F7D5206840F080002060A9
:10159000FFF7E8FE0546394E00200836306041F27C
:1015A000883704E0FFF7DEFE401BB84231D83068D0
:1015B00010F00C0FF6D1FFF7D5FE0546206820F499
:1015C0005020206005E000BFFFF7CCFE401B6428E0
:1015D0001FD820688003F7D4FFF7C4FE05462068B3
:1015E00020F08070206004E0FFF7BCFE401B022862
:1015F0000FD820688001F7D4FFF7B4FE05462068B5
:1016000020F08060206007E0FFF7ACFE401B02285E
:1016100002D90320BDE8F08120680001F4D4174905
:101620001748091D08601549164884310860134899
:101630000C30016821F4F8510160016821F4005177
:101640000160016841F41F010160016841F400116B
:1016500001600A487430016821F0010101600168ED
:1016600041F0807101600949074808600848006836
:10167000FFF786FE0028CDD00120CBE700380240DE
:1016800010300004003000200024F400000000208E
:10169000080000200448054900680968044AC1F3AD
:1016A0008221515CC8407047000000200838024089
:1016B000E43900080448054900680968044AC1F390
:1016C0004231515CC8407047000000200838024099
:1016D000E4390008154810B5006810F00C021448F1
:1016E00013D01449042A0FD0082A0ED10F4C241FFE
:1016F0002268236802F03F025B0207D52068C0F32E
:101700008810A0FB010106E0084610BD2168C1F366
:101710008811A1FB00010023FEF752FD2168C1F3EF
:101720000141491C4900B0FBF1F010BD08380240EE
:101730000024F40040787D012DE9F84F04006ED0BC
:101740002078DFF83C93C007A9F104054AD009F1DD
:1017500004000168C1F38101012908D00068C0F3C9
:10176000810002280AD1D9F80000400206D5286875
:10177000800337D560680028E1D033E06068B0F5B9
:10178000803F10D0B0F5A02F286810D020F4803012
:101790002860286820F4802028606068A8B1FFF7DE
:1017A000E1FD06460DE0286840F48030F4E740F49F
:1017B00080202860F7E700BFFFF7D4FD801B642876
:1017C00073D828688003F7D50CE0FFF7CBFD0646F9
:1017D00005E000BFFFF7C6FD801B6428F0D828682D
:1017E0008003F7D42078DFF89C8280074FF0000A4E
:1017F0003ED5A348001D016811F00C0F08D0006809
:10180000C0F3810002280BD1D9F80000400207D4B0
:101810002868800716D5E068012800D112E02BE186
:10182000E068B8B10120C8F80000FFF79BFD06464C
:1018300005E000BFFFF796FD801B0228C0D828688E
:101840008007F7D52868216920F0F80040EAC10038
:1018500028600DE0C8F800A0FFF784FD064604E00C
:10186000FFF780FD801B02281FD828688007F7D467
:101870002078000722D5824E83486169703671B1A5
:1018800001210160FFF76EFD074604E0FFF76AFDE6
:10189000C01B022809D830688007F7D50EE0C0F8D1
:1018A00000A0FFF75FFD074605E082E0FFF75AFD65
:1018B000C01B02287DD830688007F7D42078400705
:1018C00068D5DFF8BCB100270BF13C0BDBF800005A
:1018D000C0000BD4DBF8001041F08051CBF80010B1
:1018E000DBF80000012700F080500090674E306860
:1018F000C00510D4306840F480703060FFF732FDCE
:10190000009005E0FFF72EFD0099401A022850D8FC
:101910003068C005F6D55A4EA0686C3601280FD045
:101920000528306810D020F001003060306820F0C9
:1019300004003060A068B8B1FFF714FD00900FE01C
:10194000306840F00100F4E740F004003060F7E751
:10195000FFF708FD0099411A41F28830814266D8AC
:1019600030688007F4D50EE0FFF7FCFC009007E03C
:10197000FFF7F8FC0099411A41F28830814256D8AD
:1019800030688007F4D42FB1DBF8001021F08051CB
:10199000CBF80010A069C8B33949091D0968C1F323
:1019A000810102294AD00228504607D0C8F86000B9
:1019B00000E03CE0FFF7D6FC04463BE04746C8F8B1
:1019C0006000FFF7CFFC064605E000BFFFF7CAFC4A
:1019D000801B02282BD828688001F7D4D4E907019E
:1019E0000843A16A2A4A490802EB0141626A41EAB6
:1019F0008211084394F82C1040EA0161C9F80010E4
:101A000001203866FFF7AEFC044606E036E000BF72
:101A1000FFF7A8FC001B022809D828688001F7D529
:101A20002CE000BFFFF79EFC001B022802D9032018
:101A3000BDE8F88F28688001F4D41FE00128F7D0B2
:101A4000D9F80000E26900F48001914214D1226AC1
:101A500000F03F0191420FD147F6C071626A014028
:101A6000914209D1A26A00F44031914204D1E16A65
:101A700000F07060884201D00120D9E70020D7E74C
:101A80000438024000004742800E47420070004088
:101A90000000FFFF10B5040011D0022084F85100AF
:101AA0002068016821F040010160204600F04FF8F5
:101AB0000020606584F8510084F8500010BD0120BA
:101AC00010BD70B5040004D094F85100002510B189
:101AD00006E0012070BD84F85050204600F038F830
:101AE000022084F851002068016821F04001016063
:101AF000D4E901010843D4E90312114308436169A1
:101B00000843218B01F400710843E1690843216A0D
:101B10000843A16A084321680860A069042101EA1A
:101B20001040616A084321684860A06AB0F5005F10
:101B300002D12168E06A08612068C16921F400616E
:101B4000C1616565012084F85100002070BD7047B7
:101B500030B587B014216846FEF77CFB2848002189
:101B6000026842F001020260026802F0010205927E
:101B7000026842F001020260026802F0010205926E
:101B8000026842F001020260026802F0010205925E
:101B9000026842F001020260006800F00100059056
:101BA00017481430026842F480520260006805242D
:101BB00000F480500590202000900220CDE9010122
:101BC000CDE903040F4D69462846FFF7E3FA4020AC
:101BD0000090694604942846FFF7DCFA80200090C4
:101BE000694604942846FFF7D5FA1020009001209A
:101BF000019069462846FFF7CDFA07B030BD0000D6
:101C000030380240000002402DE9F84F0446406899
:101C100000259946174688464FF0040BB0F5827FA1
:101C200001D1A06888B194F85000012818D0012093
:101C300084F85000FFF796FB064694F851004FF0E9
:101C4000000A01280ED00225C9E084F851B01346DD
:101C50000A462046CDF8009000F08CF9BDE8F88FD8
:101C60000220FBE7B8F1000F7ED0002F7CD084F873
:101C700051B0C4F854A0C4F83880A787E787C4F8E7
:101C800030A0A4F834A0A4F836A0C4F840A0C4F84A
:101C900044A0A06A4FF40057B8420CD120680168F4
:101CA00021F4005101602068016841F40051016095
:101CB000E08F401EE087A068B0F5004F04D1206897
:101CC000016821F48041016020680168490603D45D
:101CD000016841F040010160E068D0B137E0206860
:101CE0008168C90709D0007BA16B0870A06B401CFC
:101CF000A063E08F401EE0870BE0FFF733FB811B02
:101D0000494503D3B9F1FF3F03D035E0B9F1000FE6
:101D100032D0E08F0028E2D11CE020688168C9073A
:101D200009D0C068A16B0880A06B801CA063E08F05
:101D3000401EE0870BE0FFF715FB811B494503D3ED
:101D4000B9F1FF3F03D017E0B9F1000F14D0E08FD5
:101D50000028E2D1A06AB8422BD12068016841F482
:101D6000805101604B4600E038E0012211462046D8
:101D7000009600F025FD08B1032530E0E068B0F5DD
:101D8000006F20680FD0007BA16B087001224B46CA
:101D900011462046009600F013FD40B1606D40F002
:101DA00002006065E8E7C068A16B0880EEE7206884
:101DB000C06832464946204600F06EFC08B120203B
:101DC000606520688168C90606D5616D41F0020131
:101DD00061654FF6EF718160606D00B101250120F2
:101DE00084F8510084F850A0284637E72DE9F84FD1
:101DF000044690F8500000271D46164688460128E4
:101E00000DD04FF0010B84F850B0FFF7ABFA8146CC
:101E100094F85100BA46012804D00227A4E0022019
:101E2000BDE8F88FB8F1000F74D0002E72D00320F7
:101E300084F85100C4F854A0C4F83080A686E68621
:101E4000C4F838A0A4F83CA0A4F83EA0C4F844A06C
:101E5000C4F840A0A068B0F5004F04D12068016824
:101E600041F480410160A06A4FF40058404509D117
:101E70002068016821F4005101602068016841F484
:101E80000051016020680168490603D4016841F0EF
:101E900040010160E068B0F5006F606803D030B3C6
:101EA000012E24D041E008B1012E1CD1206B216805
:101EB0000088C86006E020688168890709D5216B21
:101EC0000988C160206B801C2063E08E401EE08684
:101ED00009E0FFF747FAA0EB0900A84202D3681C0B
:101EE00001D038E0FDB1E08E0028E4D120E0206B85
:101EF00021680078087306E02068816889070AD5A0
:101F0000216B09780173206B401C2063E08E401E1A
:101F1000E0860AE027E0FFF725FAA0EB0900A842D7
:101F200002D3681C01D016E0ADB1E08E0028E3D1E9
:101F3000A06A404504D12068016841F480510160E5
:101F40004A462946204600F0D5FB08B120206065AE
:101F5000A06810B105E0032706E02068C16880682A
:101F60000090606D00B1012784F851B084F850A052
:101F7000384655E72DE9F84F044690F85000002602
:101F80000A9F1D4692468B464FF0010901280ED04C
:101F9000012084F85000FFF7E5F9804694F85100DD
:101FA000616801280CD0B1F5827F07D102E00220E0
:101FB000BDE8F88FA16809B9042801D0022604E120
:101FC000BBF1000F37D0BAF1000F34D095B394F8BD
:101FD0005100042802D0052084F8510000206065DB
:101FE000C4F838A0E587A587C4F830B0E586A58693
:101FF00020646064A06A4FF4005A504509D12068FB
:10200000016821F4005101602068016841F4005129
:10201000016020680168490603D4016841F040016D
:102020000160E068B0F5006F606806D0F0B3012D84
:1020300051D094E0FFE70126C7E008B1012D43D15C
:10204000206B21680088C860206B801C2063E08EB4
:10205000401EE08638E020688168890719D5E18E46
:10206000B9B1B9F1010F14D1216B0988C160206B9E
:10207000801C2063E08E401EE086E08E4FF0000959
:1020800038B9A06A504504D12068016841F48051F4
:10209000016020688168C9070ED0E18F61B1C06816
:1020A000A16B0880A06B801CA06300E013E0E08FB0
:1020B000401EE0874FF00109FFF754F9A0EB08003C
:1020C000B84201D3781C60D1E08E0028C3D1E08FE4
:1020D0000028C0D149E0206B216800780873206B8C
:1020E000401C2063E08E401EE08638E02068816856
:1020F000890719D5E18EB9B1B9F1010F14D1216B5E
:1021000009780173206B401C2063E08E401EE0863E
:10211000E08E4FF0000938B9A06A504504D120681C
:10212000016841F48051016020688168C9070CD0C2
:10213000E18F51B1C068A16B0870A06B401CA06317
:10214000E08F401EE0874FF00109FFF70BF9A0EB8D
:102150000800B84202D3781C01D016E0AFB1E08E7F
:102160000028C3D1E08F0028C0D1A06A504510D10B
:1021700001223B4611462046CDF8008000F020FBAE
:1021800028B1606D40F00200606503261DE0206804
:10219000C06820688168C90607D5616D41F00201F9
:1021A00061654FF6EF71816001264246394620464F
:1021B00000F0A0FA18B101262020606505E0A068B3
:1021C00018B92068C16880680090012084F8510027
:1021D000002084F850003046EAE610B5401EB0F109
:1021E000807F01D3012010BD4FF0E02460610F21FA
:1021F000601700F040FA0020A06107202061002055
:1022000010BD70B5040004D094F83900002510B159
:1022100006E0012070BD84F83850204600F030F808
:10222000242084F839002068C16821F40051C1607D
:10223000204600F0FFFB2068016921F49041016114
:102240002068416921F02A0141612068C16841F498
:102250000051C160E563202084F8390084F83A0019
:10226000002070BD0448016821F4802101600C2128
:102270000248FEF7DBBE000040380240000002408A
:1022800000B587B014216846FDF7E4FF19480168DE
:1022900041F400310160006800F4003005901548F9
:1022A0001038016841F001010160016801F001018D
:1022B0000591016841F0010101600068694600F084
:1022C000010005900C200090022001900120029056
:1022D00003200390072004900748FEF75BFF0022CD
:1022E00004212620FFF782F82620FFF774F807B0B4
:1022F00000BD000040380240000002402DE9F843D4
:10230000044690F839001F4616460D46202850D145
:10231000B5B1AEB194F8380001284AD0012084F854
:1023200038004FF00008C4F83C80212084F83900C0
:10233000FFF718F8A6848146E68484F8388026E002
:102340000120BDE8F883E08C401EE084A0684B4685
:10235000B0F5805F4FF000024FF0800120460097FB
:1023600003D000F0FBFBE8B90DE000F0F7FBC8B9C3
:1023700028882168C0F308004860206908B16D1CF6
:1023800005E0AD1C03E0216815F8010B4860E08C06
:102390000028D8D14B46002240212046009700F06B
:1023A000DDFB08B10320CCE7202084F839000020B1
:1023B000C7E70220C5E7FEE71FB500F01DF810B122
:1023C000002004B010BD0B4C0E226946B4F8BE02CA
:1023D000C0EBC00004EB4000FDF723FFB4F8BE02E1
:1023E0003221401CB0FBF1F201FB1200A4F8BE0246
:1023F0000120E6E7F801002008483222B0F8BE12BA
:10240000B0F8BC02491CB1FBF2F302FB131181428C
:1024100001D101207047002070470000F801002022
:10242000304810B5016886B041F040010160016894
:1024300001F040010591016841F04001016001682F
:1024400001F040010591016841F04001016001681F
:1024500001F040010591016841F04001016001680F
:1024600001F040010591016841F0400101600168FF
:1024700001F040010591016841F0400101600068F0
:10248000194C00F0400005904FF4004000900120EE
:10249000019002900320039069462046FEF77AFEE1
:1024A0004FF48040009069462046FEF773FE4FF4DB
:1024B0000050009069462046FEF76CFEA014009084
:1024C00069462046FEF766FEE01400906946204605
:1024D000FEF760FE2015009069462046FEF75AFE82
:1024E00006B010BD30380240001802401B4810B53D
:1024F000016821F040010160016821F040010160A4
:10250000016821F040010160016821F04001016093
:10251000016821F040010160016821F04001016083
:102520000F4C4FF400412046FEF780FD4FF48041F0
:102530002046FEF77BFD4FF400512046FEF776FD66
:10254000A1142046FEF772FDE1142046FEF76EFD51
:1025500021152046BDE81040FEF768BD3038024026
:1025600000180240104810B50E4901600C2141606E
:1025700000214FF400328160C0E903121201426170
:102580000176012242768276C17601774177FEF7A5
:10259000F0FB002804D04FF4AB7104A000F012FB54
:1025A00010BD0000006400402C0100202E2E5C5560
:1025B0007365725C6273705F63616E2E630000000E
:1025C00070B5174D2868FF2829D1164C2068164988
:1025D0000840B0F1005F22D16068A860686013A075
:1025E00000F004FB206880F308884FF0FF30FEF70E
:1025F000E7FE1048FEF74AFC0F48FFF733FE0F488E
:10260000FFF748FA28B10EA14F2211A000F0EEFA10
:10261000FEE7FEF7A5FF6868BDE87040004770BDA3
:1026200044000020008000080000FE2F656E7465E5
:10263000720A00002C010020B80000208801002050
:102640002E2E5C557365725C6D656E752E63000091
:1026500025732C2025640A00FEE70000044910B50C
:102660000A68521C0A6000F08DFF002010BD0000B7
:102670009000002070470907090E002806DA00F0D4
:102680000F0000F1E02080F8141D704700F1E020F9
:1026900080F8001470477047F8B5044640684FF45E
:1026A0008273984221D1A0684FF48065B0F5004F45
:1026B00001D0A8420AD12068066826F040060660CC
:1026C0006068984211D1A068A8420ED000920B46D3
:1026D00000228021204600F073F8002804D0606DAD
:1026E00040F0200060650320F8BD00920B460022F8
:1026F0000121EFE738B504461248134B0068B0FBE0
:10270000F3F04FF47A73584300906068B0F5827F1D
:102710000DD10B46009200228021204600F050F897
:1027200070B1606D40F020006065032038BD0098F6
:1027300030B1401E009020688068C0430006F6D586
:10274000002038BD0000002000366E0110B5144C8A
:102750001248012120600020E0616161A060022137
:1027600021610721C4E90A01E0604FF40071206291
:10277000A16160624FF4827060602046FFF7A1F9AA
:1027800028B108A14C220CA000F030FAFEE7206826
:10279000016841F04001016010BD000000300140BF
:1027A000880100202E2E5C557365725C7370695F22
:1027B000666C6173682E630025732C2025640A0003
:1027C0002DE9F0411D4617460E460446DDF81880F7
:1027D00008E0681C06D0FEF7C5FDA0EB0800A84283
:1027E0000BD255B12068806836EA000030D0002056
:1027F000B842EED10020BDE8F0812068416821F0A8
:10280000E00141606068B0F5827F0BD1A068B0F54F
:10281000004F02D0B0F5806F04D12068016821F02C
:1028200040010160A06AB0F5005F09D1206801682D
:1028300021F4005101602068016841F400510160F9
:10284000012084F85100002084F850000320D2E7D2
:102850000120CDE7704700000449B1F8BC22B1F86F
:10286000BE329A4201D0A1F8BC027047F8010020A4
:1028700010B5FEF77DFDBDE8104000F0C7B80000C0
:10288000054810B500680549B0FBF1F0FFF7A5FC5D
:10289000002800D0FEE710BD00000020A086010047
:1028A00030B5234893B00025016841F080510160A4
:1028B000006800F0805011901E48016841F480418A
:1028C00001600068022400F4804011900120039010
:1028D0001020009406940490CDE907504FF4A8709E
:1028E000CDE9090407200B906846FEF725FF00B1EB
:1028F000FEE70CA90F2081E831004FF4A0500F90A3
:102900004FF48050109005210CA8FEF78FFD00B108
:10291000FEE7FEF721FD41F20101884204D106489D
:10292000016841F48071016000F008F813B030BD17
:102930004038024000700040003C024070B5194C25
:102940002068194A10F00C01184804D0184D0429C9
:1029500003D0082903D002601BE0056019E011498B
:10296000091F0B68C3F380560B6803F03F0316B1D1
:10297000B5FBF3F201E0B2FBF3F20B680968C3F3B5
:1029800088135A43C1F30141491C4900B2FBF1F1DC
:1029900001602168074AC1F30311515C0268CA4013
:1029A000026070BD083802400024F40000000020DE
:1029B00040787D01D43900081048016841F4700165
:1029C00001600F48016841F0010101600C4A0021DB
:1029D0000832116002680B4B1A400260031D0A4A5C
:1029E0001A60026822F48022026005480C300160FF
:1029F00002495806803908607047000088ED00E001
:102A000000380240FFFFF6FE1030002408484168FD
:102A1000491C41608168491C8160C168491CC160D2
:102A20000168491E01600169491C0161704700008D
:102A3000240000202DE9F041044600680169E268A5
:102A400021F44051114301612169A068E269084302
:102A50006169114308432168CA6849F20C639A43CB
:102A60000243CA6020684169A26921F440711143A0
:102A70004161E069192764253226B0F5004F354AD7
:102A8000354920684FF0000806D0884201D09042B6
:102A900036D1FEF70FFE35E0884201D0904202D1D8
:102AA000FEF708FE01E0FEF7F5FD61684A18A0FB9D
:102AB000070148EB0803FDF783FB0146B0FBF5F087
:102AC0000201B1FBF5F06FF01803584301EB8000F1
:102AD00006EBC000B0FBF5F000F0F80002EB40029E
:102AE000B1FBF5F0584301EB800006EBC000B0FBF2
:102AF000F5F000F00700216810448860BDE8F0811F
:102B0000FEF7C8FD61688B0F8A00A0FB0701FDF787
:102B100057FB0146B0FBF5F06FF01802504301EB94
:102B2000800006EB0010B0FBF5F000F0F002B1FB06
:102B3000F5F002EB0012B1FBF5F06FF0180358430B
:102B400001EB800006EB0010B0FBF5F000F00F0089
:102B5000D1E7000000140140001001402DE9F041D0
:102B6000984617460E460446069D1DE0681C1BD07D
:102B70002DB1FEF7F7FBA0EB0800A84214D920689E
:102B8000C16821F4D071C1602068416921F0010160
:102B90004161202084F8390084F83A00002084F84C
:102BA00038000320BDE8F0812068006836EA0000A4
:102BB00004D00020B842D9D00020F3E70120F9E783
:102BC000FEE700000A46014601A000F00FF8FEE70C
:102BD00025732C2025640A000A46014601A000F056
:102BE00005F8FEE725732C2025640A000FB4054B79
:102BF00010B503A9044A029800F018F810BC5DF85B
:102C000014FB0000552E00089400002002E008C8C4
:102C1000121F08C1002AFAD170477047002001E056
:102C200001C1121F002AFBD1704700002DE9FF4FA0
:102C30008BB09A460F460546002606E025280BD0A5
:102C400052460D9990476D1C761C28780028F5D1C6
:102C50000FB03046BDE8F08F0024A0460122604945
:102C600000E0044315F8013F203B02FA03F008425C
:102C7000F7D128782E2817D115F8010F44F0040455
:102C80002A280ED06FF02F022878A0F130010929F0
:102C90000AD808EB880102EB410100EB01086D1C2A
:102CA000F2E757F8048B6D1C287869283ED006DCC3
:102CB0000028CDD063280BD0642804D136E07328D7
:102CC00010D075284BD052460D999047761C85E060
:102CD00017F8040B8DF8000000208DF80100E9467C
:102CE000012003E057F8049B4FF0FF3061074FF0DD
:102CF000000401D40AE0641C44450DDA8442FADB86
:102D000019F804100029F6D106E0641C8442FCDBAB
:102D100019F804100029F8D1264404E019F8010B31
:102D200052460D999047641EF8D257E001CF4FF0FC
:102D30000A0B002802DA40422D2102E0210504D5C9
:102D40002B218DF82410012103E0E10705D020217B
:102D5000F7E70DF1200908910CE00021F9E701CF18
:102D60004FF00A0BF9E75946FDF78DFA01F13002F1
:102D700009F8012D0028F6D1ADEB090000F1200B78
:102D8000600701D44FF00108D84502DDA8EB0B0025
:102D900000E000208046002406E009A85246005DBD
:102DA0000D999047641C761C08988442F5DB04E07A
:102DB000302052460D999047761CB8F10001A8F1D9
:102DC0000108F5DC05E019F8010B52460D99904712
:102DD000761CBBF10001ABF1010BF4DC6D1C34E798
:102DE0000928010070B509B1002A01DA002070BD80
:102DF000C3430020064C07E00E5CDDB27540401C6A
:102E000054F8255085EA13239042F5DBD84370BD72
:102E1000EC390008014601A0FFF7E8BE25730D0A52
:102E200000000000F0B50825DDE90546C570084F33
:102E3000002585703F880780067141718571C271D8
:102E40000372210C4172210A8172C472F0BD00002C
:102E50001C00002013B54FF47A7301226946024822
:102E6000FFF74CFA00981CBDB800002010B5094CC3
:102E70000122D1032046FEF769FA01229103204680
:102E8000FEF764FA20460122BDE810405103FEF728
:102E90005DBA00000018024010B5094C0122110370
:102EA0002046FEF753FA0122D1022046FEF74EFAE1
:102EB00020460122BDE810409102FEF747BA00000B
:102EC0000018024008B54FF00008CDF80080FFF769
:102ED000E7FCFFF7D5FCFDF7B1FBFFF7A1FAFDF723
:102EE00063FB00F021FCFDF797FB3A480168652978
:102EF00000D209B90A210160374E084601F5B061D8
:102F0000C6E9031000F5C060B060FF221F213348FE
:102F1000FDF799F9FFF7AAFFFFF7BEFFFDF7E4FA07
:102F2000FDF70EFB2E4C2FA03460FFF75FFEDFF89D
:102F3000C490DFF8C4A04FF0FF35304FFDF7E8FA3A
:102F4000D9F80000FF2802D06846FDF73FFC009842
:102F5000012801D1FFF734FBDAF800000028EDD199
:102F60007460206826490840B0F1005FE6D16068CF
:102F7000244908603860206880F308882846FEF7F6
:102F80001FFA2148FDF782FF2048FFF76BF9204820
:102F9000FEF780FD28B11FA17C2222A0FFF726FEAC
:102FA000FEE7810001F1E021C1F88051C1F88052B3
:102FB000401C0828F5DBFFF799FAFEF7D1FA4FF02D
:102FC000E021C1F81080C1F81480C1F81880386879
:102FD0008047B3E7380000201000002023090020BC
:102FE0000080000868656C6C6F20776F726C640AF3
:102FF00000000000880000208C0000204800002015
:103000000000FE2F4C0000202C010020B800002002
:10301000880100202E2E5C557365725C6D61696EAF
:103020002E63000025732C2025640A002DE9F04F43
:103030008046007987B00026C10900F01F0037469E
:10304000029603960496059600F0D0FA844C411C33
:103050004FF0FF3B4FF0600505D0DFF80892C8B194
:10306000012822D046E0BE227F4980A0FFF7BEFDA6
:10307000FDF76EFAE069CDE90005FD23012202218A
:1030800002A8FFF7CFFE02A90020FDF737FA68B3C8
:10309000C421DEE020780E22C0EBC00109EB410024
:1030A00041460E38FDF7BDF824E0FEF75BF9216AD2
:1030B000401AB0F5FA6F1DD320781F281FD0D622F2
:1030C00069496AA0FFF792FDFDF742FAE069CDE990
:1030D0000005FE230122022102A8FFF7A3FE02A998
:1030E0000020FDF70BFA08B1DC21B2E0584607B02A
:1030F000BDE8F08F20781F2801D20020F7E7E069B3
:10310000584A401C1F3AE061107894F800C021E052
:10311000002108E0535CFF2B04D0834202D81846FC
:1031200001F0FF0A491C6145F4DBFF2002F80A00A8
:10313000CAEBCA0309EB4303A168D3F80580761CE8
:1031400041F8048BB3F8098021F8028BDB7A01F88F
:10315000013BA1606645DBDB464ED222F11D00201B
:10316000FFF740FE3168F27809BA21F0FF01114300
:1031700088425ED1D222F11D3F48FDF769FA01284D
:103180000FD0CDE9007500230122022102A8FFF72C
:1031900049FE02A90020FDF7B1F9C8B14FF49371BF
:1031A00057E040F21312304930A0FFF71FFDE069ED
:1031B000CDE90005FE230122022102A8FFF732FE1D
:1031C00002A90020FDF79AF990B34FF48C7140E00A
:1031D000D4E90C01D23041F10001C4E90C01FDF742
:1031E00044F8D4ED010A00EE100A0121B8EE601A8D
:1031F000C0EE010A9FED210A20EE800ABCEEC00A53
:1032000010EE100A60708DF80C508DF80D108DF8CE
:103210000E700A218DF80F108DF8100002A9002001
:10322000FDF76CF900283FF469AF40F2331110E06C
:1032300012E0E069CDE90005FF230122022102A886
:10324000FFF7F0FD02A90020FDF758F920B14FF477
:103250009F710BA0FFF7C0FCE069401EE06145E7ED
:103260005000002042090020EC3D000825732C206E
:1032700025640A0078070020100000200000C842E2
:103280002E2E5C557365725C626C6F636B5F646F4E
:10329000776E6C6F61642E63000000002DE9F04FC3
:1032A0008046007987B00027C10900F01F003D4625
:1032B000029703970497059700F0CAF9A34C411CA5
:1032C0004FF0FF3B4FF0600605D0DFF88492D8B195
:1032D000012824D061E040F261129E499EA0FFF7D0
:1032E00085FCFDF735F9E069CDE90006FD230122F3
:1032F000022102A8FFF796FD02A90020FDF7FEF8C3
:10330000F0B340F267111AE120780E22C0EBC00141
:1033100009EB410041460E38FCF783FF3DE0FEF724
:1033200021F8216A401AB0F5FA6F36D3A069B8B116
:1033300060692178401C814231D0FDF709F9E069CC
:10334000CDE90006FE230122022102A8FFF76AFD53
:1033500002A90020FDF7D2F890B14FF4C571EEE05C
:103360002078616988421ED0FDF7F2F8E069CDE966
:103370000006FE230122022102A8FFF753FD00E010
:1033800007E002A90020FDF7B9F810B14FF4BE71B3
:10339000D5E0584607B0BDE8F08FA06918B1606964
:1033A0002178801C02E060692178401C814201D2B2
:1033B0000020EFE7E069664A401C1F3AE0611078A0
:1033C00001F0FF0C22E0002108E0535CFF2B04D049
:1033D000834202D8184601F0FF0A491C6145F4DB1C
:1033E000FF2102F80A100846CAEBCA0309EB43039F
:1033F000E168D3F805807F1C41F8048BB3F809809D
:1034000021F8028BDB7A01F8013BE1606745DADBEA
:103410004F4FA069F13F0028606900D0401CC0EB0D
:10342000C002F91D0020FFF7DDFC3A68FB7812BAF4
:1034300022F0FF021A43904271D1A069002860690E
:1034400000D0401CC0EBC002F91D4548FDF700F953
:10345000012815D040F2EB123E493FA0FFF7C6FB12
:10346000CDE9005600230122022102A8FFF7DAFC71
:1034700002A90020FDF742F8C8B14FF4F8715EE0F0
:1034800040F2DD12334934A0FFF7B0FBE069CDE92B
:103490000006FE230122022102A8FFF7C3FC02A9B5
:1034A0000020FDF72BF8C0B34FF4F17147E06069DD
:1034B000D4E90C23C0EBC0008018A26945EB0301DE
:1034C00080186941C4E90C01FCF7CFFED4ED010A74
:1034D00000EE100A0121F8EE600A80EE201A9FED3E
:1034E000210A21EE000ABCEEC00A10EE100A60703C
:1034F0008DF80C608DF80D108DF80E500A218DF8A6
:103500000F108DF8100002A90020FCF7F7FF00282B
:103510003FF44FAF4FF4FF7111E013E0FFE7E069B4
:10352000CDE90006FF230122022102A8FFF77AFC61
:1035300002A90020FCF7E2FF20B140F20A210AA014
:10354000FFF74AFBE069401EE06122E750000020DF
:1035500042090020053E000825732C2025640A003E
:10356000100000200000C8422E2E5C557365725C6E
:10357000626C6F636B5F646F776E6C6F61642E63F8
:103580000000000070B5174C06460025606A01284F
:1035900010D13046FFF74AFD00BB20781F2801D12B
:1035A00000F0A2F82169E069884203D10120C4E952
:1035B000095011E0A06A01280ED13046FFF76EFED7
:1035C00001280BD02069E169401C814204D10649E1
:1035D0006562FF20A5620860002070BD00F084F8DD
:1035E000012070BD5000002044000020F0B50022F2
:1035F0004FF0FF3C1F2815D2124BC7B21C78651C38
:10360000EEB2114D31B101290FD019E0A95C814210
:1036100008D0521CA242F9DB2F551E7010E0A95CA5
:10362000814201D16046F0BD521CA242F7DB2F550A
:103630001E701F2E04D00548006818620120F0BDDE
:103640000020F0BD50000020230900200C000020C5
:103650002DE9F04300224FF0FF3C002824DB1F4EF1
:10366000746904F10208C8EBC80383421CD33346D3
:10367000DFF86C901B78C7B25D1CEDB211B1012967
:103680000CD028E0494603E08C5C84420CD0521CEC
:103690009A42F9DB09F8037035701CE04946B146DF
:1036A00006E08E5C864202D16046BDE8F083521C83
:1036B0009A42F6DBCF5489F800500A49D9F818200D
:1036C00032B1454507D009680120C9F82010ECE760
:1036D000641CA542F7D10020E7E70000500000205D
:1036E000230900200C00002010B5D9210B48FCF75D
:1036F000B1FDFF221F210A48FCF7A5FD0948002162
:103700000170016205498160D931C1600448BDE89A
:1037100010404FF4D9711F30FCF79CBD7807002092
:10372000230900205000002010B5FFF70FF8BDE876
:10373000104000F001B8000070B5002401221021F3
:103740000B48FDF703FE4EF614750BE000F086F80B
:1037500000F06CF82046641CA4B2402802D305A0F7
:10376000FFF758FB00F010F8A842EFD170BD000041
:103770000000024073706920666C61736820726497
:103780006964206661696C0038B590208DF800008E
:103790000024124D8DF80140224610212846FDF7E5
:1037A000D5FD00226946022000F096F88DF8004011
:1037B0008DF8014000226946022000F08DF86A462B
:1037C0000021022000F088F8012210212846FDF790
:1037D000BDFDBDF8000040BA38BD00000000024049
:1037E000F8B50C4603218DF80010010C8DF801107E
:1037F000010A8DF802100C4E15468DF803000022C8
:1038000010213046FDF7A2FD00226946042000F099
:1038100063F822460021284600F05EF801221021BC
:103820003046FDF793FDF8BD0000024038B5042096
:10383000094C8DF80000002210212046FDF786FD7E
:1038400000226946012000F047F80122102120469D
:10385000FDF77CFD38BD00000000024038B5502067
:103860001C4C8DF80000002210212046FDF76EFD53
:1038700000226946012000F02FF801221021204685
:10388000FDF764FD01208DF8000000208DF8010097
:10389000024610212046FDF759FD0022694602200C
:1038A00000F01AF8012210212046FDF74FFD0620F6
:1038B0008DF80000002210212046FDF747FD002270
:1038C0006946012000F008F8012210212046FDF78A
:1038D0003DFD38BD0000024038B5144671B13CB121
:1038E00080220346009222460A48FEF743FB0CE082
:1038F000024680230748FEF779FA06E044B1024603
:10390000802321460348FEF77FF908B1002038BD27
:10391000012038BD8801002070B586B00024264AF9
:103920000094019402940394936825465B1C936071
:10393000224A90423ED1C1B101293BD104AB1C3A8D
:103940001E48FDF78EF8002834D11C481C388168C9
:1039500081B18188ADF80010C16802290CD08DF8C2
:10396000025000696A4604A90EE0144A04AB1C3AEE
:103970000021E5E70188EDE701218DF80210F0E76D
:103980000B5D1619641C33718442F9D3014602E0C1
:103990005318491C1D710829FAD38DF803009DE8BE
:1039A0000F00FEF709FD002804D140F2231104A006
:1039B000FFF708F906B070BD380000202C01002088
:1039C0002E2E5C557365725C6273705F63616E2E40
:1039D000630000000000000000000000010203047A
:1039E00006070809000000000102030400000000AF
:1039F000963007772C610EEEBA51099919C46D07FC
:103A00008FF46A7035A563E9A395649E3288DB0E56
:103A1000A4B8DC791EE9D5E088D9D2972B4CB60939
:103A2000BD7CB17E072DB8E7911DBF906410B71D16
:103A3000F220B06A4871B9F3DE41BE847DD4DA1A4F
:103A4000EBE4DD6D51B5D4F4C785D38356986C1380
:103A5000C0A86B647AF962FDECC9658A4F5C0114F9
:103A6000D96C0663633D0FFAF50D088DC8206E3BD7
:103A70005E10694CE44160D5727167A2D1E4033CE9
:103A800047D4044BFD850DD26BB50AA5FAA8B53510
:103A90006C98B242D6C9BBDB40F9BCACE36CD832FF
:103AA000755CDF45CF0DD6DC593DD1ABAC30D926A6
:103AB0003A00DE518051D7C81661D0BFB5F4B421A9
:103AC00023C4B3569995BACF0FA5BDB89EB80228A6
:103AD0000888055FB2D90CC624E90BB1877C6F2F2B
:103AE000114C6858AB1D61C13D2D66B69041DC7626
:103AF0000671DB01BC20D2982A10D5EF8985B171FF
:103B00001FB5B606A5E4BF9F33D4B8E8A2C90778AD
:103B100034F9000F8EA8099618980EE1BB0D6A7F44
:103B20002D3D6D08976C6491015C63E6F4516B6BFD
:103B300062616C1CD83065854E0062F2ED95066CB2
:103B40007BA5011BC1F4088257C40FF5C6D9B06527
:103B500050E9B712EAB8BE8B7C88B9FCDF1DDD6284
:103B6000492DDA15F37CD38C654CD4FB5861B24DEA
:103B7000CE51B53A7400BCA3E230BBD441A5DF4AB4
:103B8000D795D83D6DC4D1A4FBF4D6D36AE9694377
:103B9000FCD96E34468867ADD0B860DA732D044422
:103BA000E51D03335F4C0AAAC97C0DDD3C7105504D
:103BB000AA41022710100BBE86200CC925B56857F4
:103BC000B3856F2009D466B99FE461CE0EF9DE5E3D
:103BD00098C9D9292298D0B0B4A8D7C7173DB359EE
:103BE000810DB42E3B5CBDB7AD6CBAC02083B8ED7F
:103BF000B6B3BF9A0CE2B6039AD2B1743947D5EA8C
:103C0000AF77D29D1526DB048316DC73120B63E3BA
:103C1000843B64943E6A6D0DA85A6A7A0BCF0EE419
:103C20009DFF099327AE000AB19E077D44930FF0D4
:103C3000D2A3088768F2011EFEC206695D5762F7CB
:103C4000CB67658071366C19E7066B6E761BD4FE08
:103C5000E02BD3895A7ADA10CC4ADD676FDFB9F9E5
:103C6000F9EFBE8E43BEB717D58EB060E8A3D6D6A7
:103C70007E93D1A1C4C2D83852F2DF4FF167BBD1D5
:103C80006757BCA6DD06B53F4B36B248DA2B0DD8D8
:103C90004C1B0AAFF64A0336607A0441C3EF60DF7B
:103CA00055DF67A8EF8E6E3179BE69468CB361CB64
:103CB0001A8366BCA0D26F2536E2685295770CCC89
:103CC00003470BBBB91602222F260555BE3BBAC5CA
:103CD000280BBDB2925AB42B046AB35CA7FFD7C2BB
:103CE00031CFD0B58B9ED92C1DAEDE5BB0C2649BAC
:103CF00026F263EC9CA36A750A936D02A906099CDF
:103D00003F360EEB8567077213570005824ABF9551
:103D1000147AB8E2AE2BB17B381BB60C9B8ED292D4
:103D20000DBED5E5B7EFDC7C21DFDB0BD4D2D3862B
:103D300042E2D4F1F8B3DD686E83DA1FCD16BE819E
:103D40005B26B9F6E177B06F7747B718E65A08886F
:103D5000706A0FFFCA3B06665C0B0111FF9E658F00
:103D600069AE62F8D3FF6B6145CF6C1678E20AA0AA
:103D7000EED20DD75483044EC2B30339612667A730
:103D8000F71660D04D476949DB776E3E4A6AD1AE7F
:103D9000DC5AD6D9660BDF40F03BD83753AEBCA90E
:103DA000C59EBBDE7FCFB247E9FFB5301CF2BDBD7B
:103DB0008AC2BACA3093B353A6A3B4240536D0BA84
:103DC0009306D7CD2957DE54BF67D9232E7A66B321
:103DD000B84A61C4021B685D942B6F2A37BE0BB4CE
:103DE000A18E0CC31BDF055A8DEF022D6E65775F28
:103DF000726563656976655F626C6F636B5F706146
:103E0000636B6574006E65775F726563656976657F
:103E1000645F6C6173745F73656374696F6E0000D7
:103E2000403E000800000020980000000C2C000814
:103E3000D83E000898000020601000001C2C0008EC
:103E40000024F40001000000100000000000000049
:103E50000000000000000000000000000000000062
:103E6000000000001027000000000000000000001B
:103E700000000000000000000A0000000000000038
:103E80000000000000000000000000000000000032
:103E90000000000000000000000000000000000022
:103EA0000000000000000000000000000000000012
:103EB0000000000001000000000000000000000001
:103EC0000000000000000000000000000A000000E8
:083ED0000000000000000000EA
:040000050800018965
:00000001FF
